:020000040800F2
:1000000000060020954D0008954C0008974C00080C
:10001000994C00089B4C00089D4C00080000000013
:100020000000000000000000000000009F4C0008DD
:10003000A14C000800000000A34C0008A54C0008DB
:10004000BF4D0008C34D0008C74D0008CB4D000848
:10005000CF4D0008D34D0008D74D0008DB4D0008F8
:10006000DF4D0008E34D0008E74D0008EB4D0008A8
:10007000EF4D0008F34D0008F74D0008FB4D000858
:10008000FF4D0008034E0008074E00080B4E000805
:100090000F4E0008134E0008174E00081B4E0008B4
:1000A0001F4E0008234E0008A94C0008274E0008E8
:1000B0002B4E00082F4E0008334E0008374E000824
:1000C0003B4E00083F4E0008434E0008474E0008D4
:1000D0004B4E00084F4E0008AF4C0008534E00082E
:1000E000BD4C0008574E00085B4E00085F4E0008EC
:1000F000634E0008674E00086B4E000800000000C9
:100100006F4E0008734E0008774E00087B4E0008C3
:100110007F4E0008834E0008874E00088B4E000873
:100120008F4E0008934E0008974E00089B4E000823
:100130009F4E0008A34E0008A74E0008AB4E0008D3
:10014000AF4E0008B34E0008B74E0008BB4E000883
:10015000BF4E0008C34E0008C74E0008CB4E000833
:10016000CF4E0008D34E0008D74E0008DB4E0008E3
:10017000DF4E0008E34E0008E74E000800000000D4
:10018000EB4E0008EF4E0008F34E0008F74E000853
:10019000FB4E0008034F00080000000000000000B4
:1001A0000000000000000000FF4E0008074F00089C
:1001B0000B4F00080F4F0008134F000838B504001C
:1001C00009D004F17C05686808B900F01EF800F059
:1001D00021F8012801D1012032BDA06A08B100F048
:1001E0002AF800F00AF821F02A01FFE7816000F008
:1001F0001BF8BDE8324000F04ABF2068416821F496
:100200009041416020688168704700212970204634
:1002100001F0F4B8242068602068016849084900AA
:100220000160204600F0B2B92068016841F0010188
:10023000016020467047204600F0C6BE2DE9FC470D
:10024000054605F17C0488466068202817469946D3
:1002500043D1B8F1000F14BF002F01203ED0207809
:1002600001283AD00121217005F154060021E160F6
:100270002120606001F000F9378077808246A9680C
:10028000B1F5805F04BF286900281ABF40460027E7
:10029000474680460DE02868B8F1000F12BF18F8F5
:1002A000011B37F8021BC1F3080101857088411E4C
:1002B000718053467088CDF80090002810D000223D
:1002C0008021284600F010FF0028E4D0032005E03C
:1002D000202060600020207000E00220BDE8F6874A
:1002E00000224021284600F0FFFE0028F0D0EDE774
:1002F00030B500F17C039C68202C6AD109B1140050
:1003000001D1012030BD1C78012C62D001251D7067
:1003100000F15C0481652280628000212161FF255B
:100320008168B1F5805F04D1016961B940F2FF15C0
:1003300009E011B9016929B905E0B1F1805F06D181
:10034000016911B97F25A58003E03F2100E000216C
:10035000A1800021D9602221996001688D6845F053
:1003600001058D60A168B1F1005F1CD1A589AA4289
:1003700019D38268B2F5805F04BF0169002907BF05
:10038000DFF8E4212261DFF8E41121610021197016
:1003900001680A6842F480720A600068816841F06E
:1003A0008051816013E08268B2F5805F04BF01690B
:1003B000002907BFDFF8B8212261DFF8B8112161F9
:1003C000002119700068016841F4907101600020FB
:1003D00030BD022030BD206881684A06704770B584
:1003E00004462568E9692A68AB6811F00F000CD152
:1003F00088067CD5900601D4D80078D5E16E002916
:1004000074D02046BDE8704008475B48034208BFEF
:1004100012F4907F6BD0CE0709D5D60507D50126FB
:100420002E62D4F8885045F00105C4F888508D0735
:100430000AD5DD0708D5266802253562D4F888502C
:1004400045F00405C4F888504D070AD5DD0708D5E6
:10045000266804253562D4F8885045F00205C4F8B2
:1004600088500D070CD5950601D4034208D02568A5
:1004700008202862D4F8880040F00800C4F88800FA
:10048000D4F8880000286ED0890607D5900601D4DC
:10049000D80003D5E16E09B120468847D4F888001A
:1004A00021688A68510601D4000719D5204600F05A
:1004B0004BFEFFF790FF0ED500F062F858B12F49C0
:1004C0008163A06F00F0DEFF00284CD0A06F816B2D
:1004D000BDE8704008472046BDE8704001F008B80C
:1004E000204601F005F80020C4F8880070BDC8025D
:1004F00009D5580207D54FF4801028622046BDE880
:10050000704001F08BB8080609D5100601D4180216
:1005100005D5216F39B32046BDE87040084748062D
:100520000FD550060DD5286820F040002860202106
:10053000C4F88010002020672046BDE8704001F01C
:100540006EB8080206D5500004D52046BDE87040BC
:1005500001F066B8C80148BF002A04D52046BDE8AE
:10056000704001F05EB870BDC51200085712000857
:10057000E9110008C511000801000010B5110008BC
:10058000816821F040018160A06F70472DE9F84F2C
:100590000446DFF8080AD4F800B0DFF8047ADBF884
:1005A0000010DFF800AA0140A06801432069014360
:1005B00060690143E0690143606E0143CBF80010BC
:1005C0000026DBF80410E06821F440510143CBF829
:1005D0000410B046A169DFF8D00983451CBF206A2A
:1005E0000143DBF80820DFF8C40902401143CBF8CF
:1005F00008104FF48075DBF82C10606A090940EA96
:100600000111CBF82C10BB454FF400404FF40071A2
:100610004FF480624FF400634FF4805C4FF4005E4F
:100620004FF4804928D1DAF8007007F00307032F50
:1006300031D8DFE807F00269587D0127D4F81CB0F3
:10064000BBF5004F4FF6F07A40F0808367B1012F81
:1006500000F09482022F00F0C182042F00F0FA8291
:10066000082F00F02F8362E301F06FFB0146606A00
:10067000002840F058827FE2DFF83479BB4522D170
:10068000DAF8007017F00C0766D0042F3CD0082F62
:1006900029D00C2F4CD01027DFF80CA9D345CDD191
:1006A000BA464FB1022F00F09680042F00F0CF80A1
:1006B000082F00F0FE808CE001F047FB0146606AE5
:1006C00000284BD176E0DFF8EC78BB450DD1DAF8A5
:1006D000007017F030073FD0102F15D0202F02D018
:1006E000302F25D0D7E70227D6E7DFF8CC78BB45F7
:1006F0000CD1DAF8007017F0C0072DD0402F03D0CE
:10070000802FF0D0C02FECE70427C5E7DFF85C7A34
:10071000BB450FD1DAF8007017F440771CD0B7F55D
:10072000807FF1D0B7F5007FDDD0B7F5407FB2D143
:100730000827B1E7DFF87078BB45ACD1DAF8007074
:1007400017F4406708D0B7F5806FDDD0B7F5006FBC
:10075000C9D0B7F5406FC4E700279DE7012808BF5F
:10076000022028D0022808BF042024D0032808BF74
:10077000062020D0042808BF08201CD0052808BF68
:100780000A2018D0062808BF0C2014D0072808BF5C
:10079000102010D0082808BF20200CD0092808BF3E
:1007A000402008D00A2808BF802004D00B2808BFAA
:1007B000284600D00120B1FBF0F0002800F0E383D0
:1007C000626802EB4201884203D31103814280F048
:1007D000A28000F0D6BB606AB0B3012808BFDFF882
:1007E0009009EDD0022808BFDFF88809E8D0032877
:1007F00008BFDFF88409E3D0042808BFDFF87C09CC
:10080000DED0052808BFDFF87809D9D0062808BF50
:10081000DFF87009D4D0072808BFDFF86C09CFD003
:10082000082808BFDFF86409CAD0092808BFDFF824
:100830006009C5D00A2808BFDFF85809C0D00B28C6
:1008400008BF4FF22440BBD0DFF84C09B8E701F0F5
:1008500033FA0146606A58B3012808BF0220AAD0C3
:10086000022808BF0420A6D0032808BF0620A2D073
:10087000042808BF08209ED0052808BF0A209AD067
:10088000062808BF0C2096D0072808BF102092D059
:10089000082808BF20208ED0092808BF40208AD011
:1008A0000A2808BF802086D00B2808BF2846FAD027
:1008B00080E7676A002FC9D0012F08BF484629D0BA
:1008C000022F08BF704625D0032F08BF41F25550B4
:1008D00020D0042F08BF60461CD0052F08BF40F66B
:1008E000CC4017D0062F08BF40F6AA2012D0072F01
:1008F00008BF18460ED0082F08BF10460AD0092F8F
:1009000008BF084606D00A2F08BF284602D00B2F82
:1009100000D1802054E7BAF1000F0BD0BAF1020FDA
:1009200038D0BAF1040F00F07280BAF1080F00F06D
:10093000A780ECE001F009FA0146606A40B30128A3
:1009400008BF02251ED0022808BF04251AD003289C
:1009500008BF062516D0042808BF082512D0052890
:1009600008BF0A250ED0062808BF0C250AD0072884
:1009700008BF102506D0082808BF202502D0092866
:1009800008BF402572D00A280CBF80250B286DD0E7
:1009900001256BE0606A002836D0012808BFDFF827
:1009A000FC672BD0022808BFDFF8F46726D00328A5
:1009B00008BFDFF8F06721D0042808BFDFF8E86738
:1009C0001CD0052808BFDFF8E46717D0062808BF49
:1009D000DFF8DC6712D0072808BFDFF8C8680DD041
:1009E000082808BFDFF8C06808D0092808BFDFF86A
:1009F000BC6803D00A2808BFDFF8B4687CD00B2895
:100A000008BFDFF8946777D0DFF8A86874E001F0DA
:100A100053F90146606A40B3012808BF022525D07A
:100A2000022808BF042521D0032808BF06251DD0B1
:100A3000042808BF082519D0052808BF0A2515D0A5
:100A4000062808BF0C2511D0072808BF10250DD097
:100A5000082808BF202509D0092808BF402505D04F
:100A60000A280CBF80250B2800D001256268B1FB45
:100A7000F5F65008002110EB062051EB166141E01D
:100A8000606A002836D0012808BF4FF4800633D0B2
:100A9000022808BF4FF400162ED0032808BFDFF845
:100AA000706829D0042808BF4FF4801624D0052888
:100AB00008BFDFF860681FD0062808BFDFF8586855
:100AC0001AD0072808BF4FF4002615D0082808BF01
:100AD0004FF4802610D0092808BF4FF400360BD001
:100AE0000A2808BF4FF4803606D00B2808BF4FF401
:100AF000004601D04FF40006C246002116EB52001A
:100B00004AEB0101002301F08DF9064601E04FF0A8
:100B10000108A6F54070DFF80418884280F03182A1
:100B20002168CE602FE2012808BF022525D00228C7
:100B300008BF042521D0032808BF06251DD004289E
:100B400008BF082519D0052808BF0A2515D0062892
:100B500008BF0C2511D0072808BF10250DD0082884
:100B600008BF202509D0092808BF402505D00A283C
:100B70000CBF80250B2800D001259AE001F0EDF88C
:100B80000146606A40B3012808BF0225F5D002285B
:100B900008BF0425F1D0032808BF0625EDD004289E
:100BA00008BF08250ED0052808BF0A250AD0062848
:100BB00008BF0C2506D0072808BF102502D008283A
:100BC00008BF202575D0092808BF402571D00A2804
:100BD0000CBF80250B286CD001256AE0606AB0B399
:100BE000012808BFDFF8B00521D0022808BFDFF8D0
:100BF00080051CD0032808BFDFF8240717D004287D
:100C000008BFDFF8700512D0052808BFDFF8140709
:100C10000DD0062808BFDFF8600508D0072808BFF8
:100C2000DFF8580503D0082808BFDFF85C057AD044
:100C3000092808BFDFF8540575D00A2808BFDFF877
:100C4000500570D00B2808BFDFF848056BD0DFF8DF
:100C5000600668E001F030F80146606A40B30128A0
:100C600008BF022525D0022808BF042521D003286B
:100C700008BF06251DD0042808BF082519D005285F
:100C800008BF0A2515D0062808BF0C2511D0072853
:100C900008BF10250DD0082808BF202509D0092835
:100CA00008BF402505D00A280CBF80250B2800D09E
:100CB00001256068B1FBF5F1420802EB4102B2FB8D
:100CC000F0F632E0666A66B3012E2CD0022E08BF21
:100CD000484628D0032E08BF42F6AA2023D0042E6F
:100CE00008BF70461FD0052E08BF41F698101AD0D5
:100CF000062E08BF41F2545015D0072E08BF60469B
:100D000011D0082E08BF18460DD0092E08BF104676
:100D100009D00A2E08BF084605D00B2E08BF28466A
:100D200001D04FF4803000F049F9B6B201E04FF045
:100D30000108A6F11000504580F023810AEA06015F
:100D4000C6F3420001432068C1601CE157B1012F86
:100D500038D0022F66D0042F00F09F80082F00F0BB
:100D6000D38005E100F0F1FF0146606A40B301283D
:100D700008BF022525D0022808BF042521D003285A
:100D800008BF06251DD0042808BF082519D005284E
:100D900008BF0A2515D0062808BF0C2511D0072842
:100DA00008BF10250DD0082808BF202509D0092824
:100DB00008BF402505D00A280CBF80250B2800D08D
:100DC000012599E000F0C9FF0146606A40B301289F
:100DD00008BF0225F5D0022808BF0425F1D003285A
:100DE00008BF06250AD0042808BF082506D0052814
:100DF00008BF0A2502D0062808BF0C257CD007288A
:100E000008BF102578D0082808BF202574D00928ED
:100E100008BF402570D00A280CBF80250B286BD056
:100E2000012569E0606AA8B3012808BFDFF8401314
:100E300031D0022808BFDFF83C132CD0032808BFAC
:100E4000DFF8341327D0042808BFDFF8301322D08E
:100E5000052808BFDFF828131DD0062808BFDFF8D3
:100E6000241318D0072808BFDFF81C1313D0082854
:100E700008BFDFF818130ED0092808BFDFF81013D9
:100E800009D00A2808BFC34905D00B2808BF4FF274
:100E9000244100D0C049606831E000F00DFF0146F8
:100EA000606A40B3012808BF022525D0022808BF88
:100EB000042521D0032808BF06251DD0042808BF1B
:100EC000082519D0052808BF0A2515D0062808BF0F
:100ED0000C2511D0072808BF10250DD0082808BF01
:100EE000202509D0092808BF402505D00A280CBFB5
:100EF00080250B2800D001256068B1FBF5F101EBDE
:100F00005001B1FBF0F631E0666A6EB3012E08BF06
:100F1000484629D0022E08BF704625D0032E08BFB0
:100F200041F2555020D0042E08BF60461CD0052E3B
:100F300008BF40F6CC4017D0062E08BF40F6AA20C6
:100F400012D0072E08BF18460ED0082E08BF104634
:100F50000AD0092E08BF084606D00A2E08BF284628
:100F600002D00B2E08BF802000F028F8B6B201E0B6
:100F70004FF00108A6F11000504502D22068C6606B
:100F800001E04FF0010804F1680001214180018077
:100F90000021416081604046BDE8F28FF369FFCFD8
:100FA000003801408810024000800040FFF4FF112B
:100FB0000044004000480040004C0040616800EBE5
:100FC0005100B0FBF1F6704790F82810CA0706D51B
:100FD00002685368C16A23F400330B43536090F8EE
:100FE00028108A0706D502685368016B23F4803302
:100FF0000B43536090F828104A0706D502685368DF
:10100000416B23F480230B43536090F828100A07A8
:1010100006D502685368816B23F400430B43536089
:1010200090F82810CA0606D502689368C16B23F4AD
:1010300080530B43936090F828108A0606D5026807
:101040009368016C23F400530B43936090F82810CD
:101050004A0610D502685368416C23F480130B4391
:101060005360416CB1F5801F05D15368816C23F446
:10107000C0030B43536090F828100A0606D5016898
:101080004A68C06C22F4002202434A607047F8B5F7
:10109000044604F17C050020E8606FF07E4700F014
:1010A000EBF90646206801680A0708D50097334621
:1010B00000224FF40011204600F016F860B92068B5
:1010C00001684A070AD50097334600224FF4800191
:1010D000204600F009F808B10320F2BD2020686026
:1010E000A86000202870F2BD2DE9F041069C05465D
:1010F0000E4690461F462868C1693140B1420CBF78
:101100000120002040451CD114F1010FF3D000F064
:10111000B3F9C01B844201D3002CECD128680168CC
:1011200021F4D07101602868816849084900816014
:1011300005F17C00202141608160002101700320C5
:1011400000E00020BDE8F08101680A6822F4907296
:101150000A60DFF8D411026893680B409360202185
:10116000C0F884100021C1667047000000500040A4
:1011700000127A0000093D00AAB0280080841E00F9
:10118000006A18005558140040420F0020A10700C3
:1011900090D0030048E801000024F4000000127A17
:1011A0000000093D00AAB0280080841E00006A18D3
:1011B00000555814806A00F1560100220A810A8005
:1011C00000F096B910B500F027F808D100F02AF821
:1011D0000B70816D4B1C00F019F821B929E0088BC8
:1011E00040F00800088310BD10B500F015F808D1D4
:1011F00000F018F80B80816D8B1C00F007F821B906
:1012000017E0088B40F00800088310BD8365238831
:10121000591E21802188704700F16C020168936992
:10122000222B70478B8C00F15E0461880B40816D2E
:10123000704701680B6823F490730B6001688B683A
:101240005B085B008B602021916100211160BDE88B
:10125000104000F0FEBE2DE9F84300F071F81CD1FB
:101260006789DFF8C4900AE000F081F80870B06D7B
:10127000411C00F05FF808B900F07FF87F1EB8B29B
:101280000028F1D1208850B16189884207DA00F046
:1012900068F8264800F05EF801E000F00DF8BDE8BF
:1012A000F18300000040420F0020A1070090D0030E
:1012B0000048E801000024F43068018B41F0080187
:1012C000018370472DE9F84300F03AF81CD1678993
:1012D000DFF854900AE000F04AF80880B06D811CF5
:1012E00000F028F808B900F048F87F1EB8B20028CE
:1012F000F1D1208850B16189884207DA00F031F8D5
:101300000B4800F027F801E0FFF7D6FFBDE8F183B6
:101310000055150000CC0C0000AA0A0000FD0F00CB
:101320005461510000D43000FEFFFFEFC5110008EA
:10133000E9110008B1652188481E20802088704787
:10134000064606F15E0406F16C05B4F80280A86951
:101350002228704728603068016841F02001016050
:1013600070473068816821F0805181607047306833
:10137000808CB16D08EA000070473068016821F484
:10138000807101603068816809EA01018160202074
:10139000A86100202860304600F05BBE10B5334CD9
:1013A000334820604FF4E13060600020A060E060CE
:1013B00020610C2060610020A061E0612062606219
:1013C000A0622046FEF7FAFE08B100F0DBFE002125
:1013D000204600F0BAF808B100F0D4FE0021204603
:1013E00000F0BEF808B100F0CDFE204600F090F805
:1013F00018B1BDE8104000F0C5BE10BD10B586B0F4
:10140000044601A8142100F0E3FE2168184A914225
:1014100029D11848C16841F40031C1600222C16875
:1014200001F4003100910099016841F0010101606F
:101430000C21006800F0010000900098019100204C
:1014400003900321072004910590029201A94FF017
:10145000904000F0C1FE00220021262000F0D8FFBD
:10146000262000F0F2FF06B010BD0000D8000020DA
:10147000004400404C10024001480068704700BF23
:101480000000002038B500F1240200245178022920
:1014900003D004209061012428E001680B6823F048
:1014A0000E030B6001680D686D086D000D60516AD8
:1014B0000B6823F480730B60012192F82030D5690A
:1014C00003F01C0399406960936AD16A5960116BFB
:1014D00031B10B6823F480730B60536B916B5960CF
:1014E000012151701470516901B18847204632BD05
:1014F0007047B1F5807F02D34FF0FF307047017025
:10150000012070470078401E8041C043C00F7047E3
:1015100010B500F17C010A78012A01D1022010BD2A
:1015200001230B7024224A6002681368146864085F
:10153000640014600022426623F0005300680360D8
:10154000202048600020087010BD70B500F01EF823
:1015500001D1022070BD00F01FF822F0604209E0C6
:1015600070B500F013F801D1022070BD00F014F83E
:1015700022F0606211438160204600F01BF8206871
:101580000660202068600020287070BD044604F1C9
:101590007C0528780128704701222A702420686081
:1015A000206806680268520852000260206882685B
:1015B00070470000FFB500BF14A200BF15A6D2E916
:1015C000003402A9C1E90034D6E90071CDE9007107
:1015D000416E11B90121012213E001688A6889680E
:1015E000520E02F00702490F02AC655CA45C1DF8C4
:1015F00001101DF80220ED00E40095FBF1F194FBD1
:10160000F2F2683041800280FFBD00000101010359
:101610000701000008040204080101017047704737
:10162000704770472DE9FC4705001AD0DFF8B07706
:10163000DFF8BC47B86800F00C09F86800F0030850
:101640002878C1065AD5B9F1000F05D0B9F10C0FB1
:1016500008BFB8F1010F2DD13868810703D5A869FB
:10166000002800F05881396808074EBF3968616862
:101670000909286A01F0F001814206D200F079FBE5
:10168000002808D100F01EFA07E000F01BFA286AD3
:1016900000F06FFB002840F03E8100F00DFB00F0F1
:1016A00000FBDFF84407006800F0FAFE010000F0DC
:1016B000368105E2A869C0B1396841F0010139609D
:1016C000FFF7DAFE06463868810700F12681FFF74A
:1016D000D3FE801B0328F6D30320F1E1FFF7CCFEF5
:1016E000801B0328C0F05681F6E7386840084000A8
:1016F0003860FFF7C1FE06463968880740F10F8160
:10170000FFF7BAFE801B0328F6D3E5E76868B0F55B
:10171000803F06D0B0F5A02F396807D141F4802171
:101720003960386840F48030386006E021F4803158
:1017300039603A6822F480223A60686860B1FFF745
:101740009BFE06463968880300F1FC80FFF794FE93
:10175000801B6528F6D3BFE7FFF78EFE0646386884
:10176000810340F1EF80FFF787FE801B6528F6D3E9
:10177000B2E7E86880B1396841F480713960FFF7F9
:101780007BFE06463868410500F13381FFF774FEA1
:10179000801B0328F6D39FE7386820F480703860F8
:1017A000FFF76AFE06463968480540F1E580FFF715
:1017B00063FE801B0328F6D38EE760684008400074
:1017C0006060FFF759FE06466068810740F1E680D9
:1017D000FFF752FE801B0328F6D37DE7052820681B
:1017E00006D140F004002060216841F0010105E0CD
:1017F000400840002060216821F004012160A868B1
:1018000041F2893868B1FFF737FE824621688807C0
:1018100000F10081FFF730FEA0EB0A004045F5D350
:101820005AE7FFF729FE82462068810740F1F280DF
:10183000FFF722FEA0EB0A004045F5D34CE7FFF787
:101840001BFE801B0328C0F0F88045E7A068400815
:101850004000A060FFF710FE0646A068810740F137
:10186000F080FFF709FE801B0328F6D334E7FFF76B
:1018700003FE801B0328C0F0F4802DE7FFF7FCFD7A
:10188000801B0328C0F0178126E7396811F0205F1C
:1018900003D1F86880088000F860F968DFF8540523
:1018A0000140F960FFF7E8FD06463868810140F124
:1018B0000681FFF7E1FD801B0328F6D30CE7012822
:1018C00029D0F868EA6A00F00301914201BF00F0F4
:1018D000F0012A6B521EB1EB021F1CD16A6B00F49F
:1018E000FE41B1EB022F02BF00F07841AA6BB1EBD1
:1018F000C26F10D1EA6B520800F4C001521EB1EB66
:10190000425F08D1296C490800F0C060491EB0EB65
:10191000416F00F0D4800120D2E000F0D3F82878A5
:10192000C1070FD5B9F1080F06D0B9F10C0F08BFE8
:10193000B8F1030F7FF4EAAE3868810302D5686816
:101940000028E8D02978880716D5B9F1040F06D009
:10195000B9F10C0F08BFB8F1020F7FF40AAF386875
:10196000410502D5E8680028D5D07968286921F0BA
:10197000FE4141EA00617960297808070ED568695F
:1019800000283FF41AAF616841F001016160FFF780
:1019900073FD0646606881077FF5A0AE2978480789
:1019A0003DD5B86D0026C10009D4B86D40F0805017
:1019B000B8650126B86D00F0805000900098DFF8FF
:1019C0003884D8F80010C8051BD4D8F8000040F4BB
:1019D0008070C8F80000FFF74FFD8246D8F800106D
:1019E000C8050ED4FFF748FDA0EB0A000328F5D385
:1019F00072E67868296920F0FE4040EA016078606C
:101A0000BAE7A86801287FF4E9AE206840F0010039
:101A10002060F4E61EB1B86D20F08050B8652978DA
:101A200088060ED5686A00283FF410AFA16841F01F
:101A30000101A160FFF720FD0646A06881077FF540
:101A4000FEAEA86AD8B3B9F10C0F3FF438AF022844
:101A5000386820F0807038607FF417AFFFF70CFD16
:101A60000646396888013FF502AFF968DFF88C0354
:101A7000EA6B0140E86A0143286B401E41EA00110D
:101A8000686B520841EA0021286C521E400841EA66
:101A90004251401E41EA4061A86B41EAC061F960D1
:101AA000396841F080713960F86840F08070F86002
:101AB000FFF7E2FC0646386881017FF5DFAE0020C3
:101AC000BDE8F687386840F0080038603968286A51
:101AD00021F0F001014339607868E96920F47F4022
:101AE00040EA0120786070472DE9F047044600265F
:101AF000002C6DD0DFF808532868884600F00F00EE
:101B0000404509D22968090948EA01112960286875
:101B100000F00F0040455BD12168DFF8C472C807B0
:101B200040F1B5806068DFF8DC92032847D138685F
:101B300082014DD5F868002200F0030001280FD182
:101B40003A68100705D4DFF8A4020268C2F3032044
:101B500002E03868C0F30310DFF8AC2252F820200E
:101B6000F86800F00300022804D0032804D1DFF84D
:101B70009C2201E0DFF89822FB68F868D7F80CC0D7
:101B8000C0F306204243C3F30310401CB2FBF0F045
:101B9000CCF34162521C5200B0FBF2F0484526D310
:101BA000B86810F0F00F1BD0880720D5A068F0B9F6
:101BB000B96821F0F00141F08001B96016E0022817
:101BC00002D13868810302E018B93868810703D46C
:101BD0003CE03968480539D500F06EF8484506D331
:101BE000B86820F0F00040F08000B860802641F234
:101BF0008939B9686068890840EA8101B960FFF7EE
:101C00003BFC8246B868616800F00C00B0EB810FC5
:101C10003DD0FFF731FCA0EB0A004845F2D303208A
:101C200033E0802E03D1B86820F0F000B860296856
:101C300001F00F0188450BD22868000948EA00101E
:101C40002860296801F00F01414501D001201CE006
:101C50002078410705D5B968E06821F4E0610143C7
:101C6000B9602078010706D5B868216920F4605072
:101C700040EAC100B86000F01FF800F012F8BDE8BB
:101C8000F0475948006800F00BBCBDE8F0872178A8
:101C90008807C6D5B968A06821F0F0010143B96092
:101CA000C5E7BA685B49C2F30312895C4D4A01F08B
:101CB0001F01C8401060704770B5494A534B906887
:101CC000D6680025002110F00C0006F00306504CE9
:101CD00003D00C2812D1012E1AD115682E0704D476
:101CE000424D2E68C6F3032502E01568C5F30315BF
:101CF000454E56F8255048B9294624E0042808BF27
:101D0000214620D008281ED119461CE00C281AD1E3
:101D1000D06800F00300022803D0032808BF1D4646
:101D200000E02546D168D068D268C0F3062045435C
:101D3000C1F30310C2F34161401C491CB5FBF0F034
:101D40004900B0FBF1F1084670BD2648324A0068F0
:101D500013683249C3F3022206E022482E4A006883
:101D600013682E49C3F3C222895C01F01F01C840E9
:101D700070477CB52A4E054630680024C10002D564
:101D800000F0B0FB0EE0306840F080503060316809
:101D900001F080510091009800F0A4FB316821F01F
:101DA00080513160B0F5007F04D1802D09D9A12D7B
:101DB00006D301E0802D01D3022402E0702D00D172
:101DC00001240F480168090944EA01110160006813
:101DD00000F00F00A04201D0012076BD002076BDAA
:101DE000001002400C00002004000020941002406B
:101DF00090100240FFFFEEFE007000400C809D013D
:101E00000020024001B4C404EC4B000800127A0028
:101E10000024F400DC4B000808100240B04D00081C
:101E200058100240B3BBD9B1B2F5803F7DD2022A2F
:101E30001ED98C46B1FBF2F102FB11C31B0443EA2D
:101E40001043B3FBF2FC02FB1C3380B240EA0343B5
:101E5000B3FBF2F002FB103240EA0C400023704763
:101E6000022A05D98446B0FBF2F002FB10C270478B
:101E70004AB105D100F0010249085FEA300070471D
:101E800000220023704700F0E7BB0B000200002196
:101E900000207047904271EB030CF6D3B3F5803FFE
:101EA0002FD2F0B5B3FA83F7B1FA81F4A7F10F0E90
:101EB0003D1B5340CEF1200602FA0EF2F34153408F
:101EC000B5F10F0746D80F3C2C444140C4F1200621
:101ED000A040F1414140B1FBF3F603FB1611A2FB18
:101EE0000645001BA94102D2761E8018594180EA9E
:101EF000010221FA0EF362FA0EF200215A40304636
:101F0000F0BD30B4B1FBF3FC03FB1C11A2FB0C458C
:101F1000001BA94103D2ACF1010C8018594130BC1F
:101F200002460B46604600217047B2F1807F65D3C0
:101F3000F0B5B2FA82F7B1FA81F4C7F10F063D1B92
:101F400022FA06F307F1110EF24120355A40B5F19D
:101F50000F07B8D94140C4F12006A040F1414140EB
:101F6000B1FBF3FC03FB1C11A2FB0C45001BA941B8
:101F700003D2BCF1010C801859410F2F12D30F3F2F
:101F8000C90341EA5041B1FBF3F603FB1611A2FB72
:101F90000645D4EBC030A94102D2761E80185941C3
:101FA00046EACC3C07B34140C7F12006B840F141B6
:101FB0004140B1FBF3F603FB1611A2FB0645001BE3
:101FC000A94102D2761E8018594180EA010221FA05
:101FD0000EF3C7F1200462FA0EF20CFA07F05A4031
:101FE0002CFA04F13043F0BD80EA010221FA0EF32D
:101FF000002162FA0EF260465A40F0BD8C46B1FBF9
:10200000F2F102FB11C31B0243EA1063B3FBF2FCC3
:1020100002FB1C331B024CEA002043EA1063B3FBB3
:10202000F2FC02FB1C331B024CEA002043EA106363
:10203000B3FBF2FC02FB1C331B024CEA002043EA18
:102040001063B3FBF2FC02FB1C324CEA00200023BD
:102050007047704701B54FF6FF7301226946274864
:10206000FEF7ECF8009802BD2DE9F04700F0F6FA13
:1020700000F04DF800F002FB00F034FBFFF78EF9A2
:102080000FF204104DA41D4DDFF874800FF2181AE2
:102090000FF20C1900F05EFB00270A2609E05046FB
:1020A00000F058FB00F02EF8012000F0B8FA00F024
:1020B0002EF87F1C3946484600F04CFB4FF47A70EE
:1020C00000F05CFB052197FBF1F101EB8101791A2E
:1020D000EFD10A2097FBF0F006FB10700028DED04D
:1020E000204600F037FB00F00DF800F05BFB01210B
:1020F000002000F05FFB00F07FFBDAE7D800002053
:10210000F8010020012241462846FEF7F1B800B54B
:10211000BDB005A8442100F05BF86846142100F02A
:1021200057F816A89C2100F053F8002000F0EFF9B2
:1021300001210B911020059060210D9100200C9041
:1021400001211091119102200F903C2113901490C5
:102150001590129105A8FFF765FA0F200090032152
:102160000020019102900390049005216846FFF73A
:10217000BBFC022016900021269116A800F044FB1B
:102180003DB000BD704700002A2A2068656C6C6F66
:1021900020776F726C64202A2A200A0D000000004C
:1021A0002564200A0D0000002A2A20696E746F2021
:1021B00073746F7032200A0D000000002A2A206913
:1021C0006E746F20736C656570200A0D000000004E
:1021D000002200F019BE00002DE9F84F4FF0000E6C
:1021E000714A724BDFF8C8814FF00F0982460F46E3
:1021F00033E0704DAA4514BF082507258D402543BF
:1022000043F82C50C143146801EA040C7C68E503D0
:1022100048BF40EA0C0CC2F800C0546801EA040C44
:102220007C68A50348BF40EA0C0CC2F804C094685F
:1022300001EA040C7C68E50248BF40EA0C0CC2F8D5
:1022400008C0D46801EA040C79688C0248BF40EAEF
:102250000C0CC2F80CC00EF1010E396831FA0EF008
:1022600000F09780012000FA0EFC1CEA0100F2D079
:102270007C68022C18BF122C4FEA8E0110D14FEA55
:10228000DE040AEB840401F01C05266A09FA05FB4A
:1022900026EA0B06D7F810B00BFA05F53543256290
:1022A0004FEA4E040325DAF8006097F804B0A54021
:1022B000ED430BF0030B2E400BFA04FB4BEA060632
:1022C000CAF800607E68012E18BF022E03D0112EBE
:1022D00018BF122E17D1DAF80860D7F80CB02E40CC
:1022E0000BFA04FB4BEA0606CAF80860DAF8046049
:1022F00026EA0C0C7E68C6F3001606FA0EF646EACD
:102300000C06CAF80460DAF80C603540BE6806FABC
:1023100004F42C43CAF80C407C68E4009BD5D8F840
:10232000004044F00104C8F800404FEA9E0CD8F881
:10233000005005F00105009501F00C01009C53F8D8
:102340002C5009FA01F425EA0404BAF1904F08BFB1
:1023500000251DD0184DAA4508BF012518D0174DDE
:10236000AA4508BF022513D0154DAA4508BF03256D
:102370000ED0144DAA4508BF042509D0124DAA4518
:1023800008BF052504D0114DAA457FF432AF0625BC
:1023900034E7BDE8F18F0E4A136803421CBF10609A
:1023A00000F018B870470000000401400800014028
:1023B00060100240001C004800040048000800486B
:1023C000000C0048001000480014004800180048A5
:1023D00014040140704700000901020081B002D4DA
:1023E0002948815405E0294802F00F02104400F802
:1023F000041C01B07047264A13684FF6FF01000223
:102400000B4000F4E0601843224908431060704715
:1024100038B51F4B1C68C4F30223C3F10704052C15
:1024200028BF04241D1D072D34BF0023DB1E0125FA
:1024300005FA04F4641E2140994005FA03F35B1E7B
:102440001A401143BDE83440C6E7010007D4012219
:1024500000F01F01104B8A40400943F820207047CC
:1024600010B5401EB0F1807F01D3012010BD0B4C90
:1024700060600F214FF0FF30FFF7AEFF0022A26037
:1024800007202060002010BD00E400E018ED00E00F
:102490000CED00E00000FA0500E100E010E000E0D3
:1024A00070B50E4E0446B0680025A0B14FF47A71A5
:1024B000B1FBF0F00A490A68B2FBF0F0FFF7D0FF79
:1024C00048B9102C07D2002221464FF0FF30FFF709
:1024D0009FFF746000E00125284670BD00000020C9
:1024E0000C000020DFF85C01016801F4C061B1F567
:1024F000806F02D14FF480607047DFF84C010168B3
:10250000CA0502D54FF4007070470020704730B5FF
:102510003222DFF83831DFF83041DFF8281118BBFC
:10252000086800F4C060B0F5806F18D1256825F404
:1025300080752560086820F4C06040F40070086071
:102540001B68DFF80C015A43B2FBF0F0401C4A69EB
:10255000530533D5002818BF401EF8D12EE020685F
:1025600020F48070206027E0B0F5007F1ED10D6858
:10257000206805F4C065B5F5806F40F48070206078
:102580001AD10C6824F4C06444F400740C60186818
:102590004243DFF8BC00B2FBF0F0401C4A6953052F
:1025A00010D5002818BF401EF8D10BE00A6822F4AD
:1025B000C06242F480620A60002030BD4869410573
:1025C00003D4F9E748694105F6D5032030BD1D481D
:1025D000016841F480410160704710B519491B4AF8
:1025E00008681B4C20F48040086032201368434385
:1025F000B3FBF4F0401C4A69930506D5002818BFC8
:10260000401EF8D101E0002010BD48698105FAD5CF
:10261000032010BD086820F00400086070470949D5
:102620000A68D208D20042F002020A600128094971
:102630000A6842F004020A600FBF30BF40BF20BFEB
:1026400020BFE7E700700040807000400C000020D1
:1026500040420F0010ED00E070470000032010B56D
:10266000FFF7C9FE0020FFF71BFF0024002814BF5E
:10267000012400F0E3FB204610BD000010B586B039
:1026800001A81421FFF7A4FD1348144A046844F07C
:1026900001040460016801F00101009100990168E2
:1026A00041F0040101604FF40051006800F00400A3
:1026B00000900098019100200390029201A908481F
:1026C000FFF78AFD002200212820FFF7A1FE282025
:1026D000FFF7BBFE06B010BD4C1002400000111009
:1026E0000008004880B51848184901604FF4966109
:1026F0004160002181604FF47A71C1600021016165
:102700004161816100F0B2FB18B1BDE80140FFF703
:1027100039BD01BD00680D49884200D0704780B5C1
:102720000B48016841F4802101600022006800F438
:1027300080200090002100981A20FFF769FEBDE874
:1027400002401A20FFF781BEB4010020004801407A
:10275000601002400EB4C0B5024603A800210190EB
:10276000009101AB0121044878440C3000F0B4FC26
:1027700006BC5DF810FB00BFFB25000038B5044621
:10278000FEF77AFE14F1010F054602D0044988686D
:102790000419FEF771FE401BA042FAD331BD00BF01
:1027A000000000200248016821F00201016070472A
:1027B00010E000E010B50C460D490028086805D16E
:1027C000810507D5FFF709FF20B110BD810558BF6E
:1027D000FFF7FDFE0748016821F00401012C0160AC
:1027E00001D130BF10BD40BF20BF20BF10BD0000D1
:1027F0001470004010ED00E00248016841F0020151
:102800000160704710E000E02DE9F84F0546002414
:102810002868DFF81064DFF810740105A24620D59F
:10282000E86E68B1202817D0402804D0602818BF6F
:10283000802809D013E0F06840F48030F06004E0B4
:10284000002100F0EBF9044654B97969E86E21F0F3
:10285000E0010143796104E000F0DAF9F3E70124D3
:10286000A2462868C10424D5286FC0B1B0F5807F86
:102870001AD0B0F5007F06D0B0F5407F18BFB0F594
:10288000806F04D013E0F06840F48030F0607CB9D1
:102890007969286F21F4E0610143796109E0002141
:1028A00000F0BCF90446F2E700F0B2F9FAE70124BF
:1028B000A2462868810305F184082DD5B06DC100BA
:1028C0004FF000090AD4B06D40F08050B0654FF071
:1028D0000109B06D00F0805000900098DFF84C03C3
:1028E000016841F480710160FEF7C6FD8346DFF8A0
:1028F0003C030168CA0500F11A81FEF7BDFDA0EB9B
:102900000B000328F3D30324A246B9F1000F03D030
:10291000B06D20F08050B0652978C80705D53A68B9
:10292000E86B920840EA82023A602878810705D570
:102930003968286C21F00C0101433960287841077F
:1029400005D53968686C21F0300101433960287879
:10295000010705D53968A86C21F0C0010143396031
:102960002878C10605D53968E86C21F44071014327
:1029700039602878810605D53968286D21F44061D1
:10298000014339602868810505D53968686E21F4EE
:102990004021014339602868410505D53968A86E92
:1029A00021F44011014339602878410605D5396882
:1029B000686D21F44051014339602878010605D53E
:1029C0003968A86D21F44041014339602868C10588
:1029D00005D53968E86D21F4403101433960286834
:1029E000C10205D57969286E890840EA81017961BB
:1029F000286881041CD53968686F00F000F9686F99
:102A0000B0F1006F0DD1F06840F48010F0600FE07D
:102A1000FEF732FD0099A0EB0B008842C0F0A680C3
:102A200071E7B0F1806F03D100F0F7F800F0ECF837
:102A30002868010327D5A86FB0F5804F04D17969C4
:102A400041F48041796107E0786920F48040786141
:102A50003968A86F00F0D3F8A86FB0F1006F03D108
:102A6000F06840F4801005E0B0F5804F04D1F068C4
:102A700040F48030F06006E0B0F1806F03D100F0E8
:102A8000CCF800F0C1F82868410313D53968E86F25
:102A900000F0B5F8E86FB0F1006F04D1F06840F4D1
:102AA0008010F06006E0B0F1806F03D100F0B5F85F
:102AB00000F0AAF82868410410D53968D5F88000DC
:102AC00021F0405101433960D5F88000B0F1805FBA
:102AD00004D1022100F0A2F800F096F82868C103A2
:102AE00006D57969D8F8000021F004010143796125
:102AF0002868810206D57969D8F8040021F0180108
:102B000001437961286841024CD5316821F0805138
:102B10003160FEF7B1FC83463068810032D5FEF7A4
:102B2000ABFCA0EB0B000328F6D3032439E0002C08
:102B30007FF4EAAEB86810F440701CBFD8F81410E7
:102B400088420BD0B868B96841F48031B96020F48C
:102B50004070B96821F48031B960B860C00709D508
:102B6000FEF78AFC834641F289300090B9688807F5
:102B70007FF54EAFB968D8F8140021F440710143D5
:102B8000B960C2E664B97969D8F8080021F4403127
:102B90000143796105F12000022100F0A2F804460A
:102BA00004B1A2462868010213D57969D8F80C004F
:102BB00021F4805101437961D8F80C00B0F5805FB1
:102BC00007D1012105F1200000F08BF8010018BFAA
:102BD00082462868C1010FD57969D8F8100021F420
:102BE000401101437961D8F81000B0F5001F03D1FE
:102BF000F16841F48011F1605046BDE8F28F21F098
:102C00004061014339607047044600B1A2467047F5
:102C1000002105F1200000F064B80121281D00F01A
:102C200007B8000000100240881002400070004009
:102C30002DE9F04100F0D6F806D0F16801F003016B
:102C4000814228D160B926E0012804D023D303288B
:102C50001BD016D31FE0326891071CD500F0A4F8F2
:102C6000306820F0806000F0BAF8804631680801D2
:102C700029D5FEF701FCA0EB08000328F6D30325B5
:102C80002EE031684A05E9D405E032689103E5D4C5
:102C900031684A03E2D4012522E0012C336900F0B7
:102CA00089F842EA01113161306840F0806000F03B
:102CB00096F80446316808010ED4FEF7DDFB001BD0
:102CC0000328F7D3DBE77968BA68491E002CE4D102
:102CD000336900F061F8E4E73169B86901433161B3
:102CE00057E02DE9F04100F07DF806D0F16801F0E1
:102CF0000301814228D160B926E0012804D023D302
:102D000003281BD016D31FE0326891071CD500F0B2
:102D10004BF8306820F0805000F061F88046316850
:102D2000880029D5FEF7A8FBA0EB08000328F6D3FE
:102D300003252EE031684A05E9D405E032689103A5
:102D4000E5D431684A03E2D4012522E0012C7369FD
:102D500000F030F842EA01117161306840F08050B3
:102D600000F03DF80446316888000ED4FEF784FB7D
:102D7000001B0328F7D3DBE77968BA68491E002CEB
:102D8000E4D1736900F008F8E4E77169B8690143B8
:102D900071612846BDE8F08118480340F86843EAAD
:102DA000022242EAC0627047F168890840EA810065
:102DB000F060704709D1124803403869400843EA7F
:102DC0000222401E42EA405270470E480340786992
:102DD000400843EA0222401E42EA406270473060E7
:102DE000FEF74ABB0746044E38680C46F1680025DA
:102DF00011F0030F70470000001002400F80FF0722
:102E00000F809FFF0F80FFF900B500BF13009646AB
:102E10009446103928BFA0E80C50FAD85FEA417CEC
:102E200028BF0CC048BF40F8042BC90728BF20F8B2
:102E3000022B48BF00F8012B00BD00000A4881B0FA
:102E4000816841F001018160816801F00101009118
:102E50000099016841F080510160006800F08050E5
:102E60000090009801B070475810024038B5040037
:102E700001D1012032BD00F014F818B900F00DF8AE
:102E8000FFF748FCFFE702206870211D206800F072
:102E9000BDF801206870002032BD00212970204655
:102EA000704704F13C056878704710B50446206807
:102EB00001698A0715D5C1688A0712D56FF0020229
:102EC000026101212177806910F0030F204602D0B2
:102ED00001F0CDF803E001F0CBF800F094F8002009
:102EE0002077206801694A0715D5C1684A0712D5BD
:102EF0006FF00402026102212177806910F4407FA3
:102F0000204602D001F0B3F803E001F0B1F800F080
:102F10007AF800202077206801690A0715D5C16872
:102F20000A0712D56FF00802026104212177C069F7
:102F300010F0030F204602D001F099F803E001F0F1
:102F400097F800F060F80020207720680169CA0631
:102F500015D5C168CA0612D56FF0100202610821AA
:102F60002177C06910F4407F204602D001F07FF83D
:102F700003E001F07DF800F046F80020207720689B
:102F80000169CA0708D5C168CA0705D56FF00102F3
:102F90000261204601F06DF8206801690A0608D533
:102FA000C1680A0605D56FF080020261204601F073
:102FB00061F820680169CA0508D5C1680A0605D507
:102FC0006FF480720261204601F055F820680169B3
:102FD0004A0608D5C1684A0605D56FF0400202616D
:102FE000204601F049F8206801698A060AD5C168BF
:102FF0008A0607D56FF0200202612046BDE8104026
:1030000001F03BB810BD204601F038B82DE9F0437F
:10301000DFF8A470D0F800C0DFF8A030DFF8A040DF
:10302000DFF8A050DFF8A060DFF8A0E0DFF8A080B4
:10303000DFF8A090B84218BFB0F1804F07D04845E4
:1030400018BF404503D0704518BFB0420ED14A6842
:10305000B8422CF0700C18BFB0F1804F42EA0C0C53
:103060000CD048451CBF4045704507D0B04218BF42
:10307000A84203D0A04218BF984204D1CA682CF4D9
:10308000407C42EA0C0C4A692CF0800C42EA0C02AB
:103090000260B8428A68C26218BFB0420A6882629F
:1030A00004D0A8421CBFA042984201D10969016323
:1030B00001214161BDE8F083002C0140004801403E
:1030C000004401400040014000340140000C004039
:1030D00000080040000400402DE9F84F74A7A2B09A
:1030E000D7E90045CDE900452C9EDFF8307C0491FE
:1030F0008DF843605FF000016FA40D9112944FF0C2
:10310000FF368246904699460FE0C3462C461BF890
:10311000011B0498D0470028049000F0B2800D985D
:10312000401C641E0D90F2D1A84498F80000252898
:1031300007D100210791089109910A910B910C91F7
:103140000DE06A463146404600F0CAFF050001D155
:103150000D98B5E0D9D50125E6E741F0010118F851
:10316000010F2028F9D023280CD02B2804D02D289B
:1031700005D0302809D086E041F00201EFE741F0A8
:103180000401ECE741F00801E9E741F01001E6E74E
:1031900000200F900AE00F98B84205DA00EB800398
:1031A00002EB4302303A0F9208F1010898F8002030
:1031B000A2F130000A28EED398F800002E2818BF9C
:1031C0000E9629D118F8010F2A280BD1D9F8000042
:1031D000C9F8000008F1010850F8042BC9F80000F4
:1031E0000E9219E02D280CBF18F8010B00200022C8
:1031F0000E920BE040B90E9ABA4205DA02EB820455
:1032000003EB4403303B0E9308F1010898F80030BB
:10321000A3F130020A2AEDD3ADF84010129898F8C5
:10322000001000F067FF08B118F8010B8DF842009C
:103230009DF84200682804BF98F80010682903D15F
:1032400062208DF8420008E06C2804BF98F8000066
:103250006C2804D171218DF8421008F1010813A8DF
:1032600006904A4618F8013B02A9504600F068F85B
:1032700038B913AA02A9504600F0CAF900287FF510
:1032800054AF30461CE02A2882D1D9F80020C9F872
:10329000002052F8040BC9F8002000280F9003D535
:1032A00040420F9041F0040108F1010884E700005A
:1032B0000000000000000000686A6C747A4C000096
:1032C00023B0BDE8F08F622820D0682811D06A288A
:1032D00003D06C2827D0712825D10868C01D20F0A4
:1032E00007000860D0E9002308300860194610463E
:1032F0007047002A0A680A60106803D0121D0A602D
:1033000000B217E0121D0A6080B217E0002A0A68B6
:103310000A60106803D0121D0A6040B20AE0121D54
:103320000A60C0B20AE0002A0A680A60106803D086
:10333000121D0A60C1177047121D0A6000217047F4
:103340007CB50D4611461C462E69B4F1250200F0ED
:103350004D811C3A00F08680121F022A40F28280C2
:103360000E3A00F00781521F5AD0093A7AD0921EC5
:1033700016D0521E35D0521E022A73D9121F30D0D9
:10338000521F00F09A80521E4AD0521E00F0E48074
:10339000D21E00F0FD80921E42D0D21E40D02BE102
:1033A00095F83A206C2A09D06869421C6A610A685B
:1033B0000A6052F8043B0A60335427E10A680A6045
:1033C00052F8043B0A600021009301914FF0FF3254
:1033D0002A6329466A4600F096F9002840F11681D2
:1033E00001E195F83A000122FFF76DFFC5E9000100
:1033F0000023994204DA6869411C69612D210DE0BE
:10340000288F810704D56869411C69612B2105E07B
:10341000C00722D56869411C6961202131541CE034
:1034200095F83A000022FFF74EFFC5E9000195F834
:103430003800010711D5D5E900230020834208BFD9
:1034400082420AD044F02000782806D168693021F1
:103450003154401C411C6961345421466869304430
:10346000E86083E00868C01D20F007000860D0E92C
:10347000002308300860C5E90023D5E90001C80F22
:1034800004D06869411C69612D210DE0288F8107F6
:1034900004D56869411C69612B2105E0C00704D58A
:1034A0006869411C69612021315468693044E860D1
:1034B0002146284600F032FAA8E005F13A02507899
:1034C00020B14FF0FF340FF6243070E010786228FE
:1034D00008D0682824D06A2812D06C282ED07128F1
:1034E0000ED02BE00A680A6052F8040B0A6020B97B
:1034F0004FF0FF340FF60C3059E0E96A017085E0B7
:103500000A680A6052F8040B0A6020B94FF0FF34D1
:103510000FF6F0204BE0EA6AD317C0E9002375E00C
:103520000A680A6052F8040B0A6020B94FF0FF34B1
:103530000FF6D0203BE0E96A018067E00A680A6084
:1035400052F8040B0A6020B94FF0FF340FF6B42094
:103550002DE0E96A016059E00A680A6052F8040B3C
:103560000A600021C5E90001EE607821284600F0DC
:1035700029F94BE06C2285F83A200B680B6053F870
:10358000042B0B6052BB4FF0FF340FF6AC200EE063
:1035900095F83A206C2AF0D00868086050F8044B7F
:1035A0000860EC603CB94FF0FF340FF6702000F07B
:1035B000ADFD201A76BD2E6B002E04D5204600F0FE
:1035C000C5FD044608E032460021204600F0DAFD41
:1035D000002814BF041B3446AC6117E0294600F0F4
:1035E00092F8002812D54FF0FF3076BD6869411C73
:1035F00069612521315409E06969481C6861252207
:103600007254210002D0411C69613454002076BDFF
:103610002DE9F0410E460546716B7069B46A091ACE
:10362000306A091AB069091A706A091AF069091A28
:1036300096F838000C1B410790460DD4002C0BDD8A
:103640002746B0682021A8470028B06057D0F06A0C
:10365000401C7F1EF062F4D1736942463146284611
:1036600000F0ACFC00284AD1376A002F0ADDB068B0
:103670003021A8470028B06041D0F06A401C7F1E6E
:10368000F062F4D1B369F2683146284600F096FC46
:10369000A8BB776A002F09DDB0683021A847B06069
:1036A00068B3F06A401C7F1EF062F5D1F068B16922
:1036B000F36942183146284600F080FCF8B9B76A31
:1036C000002F09DDB0683021A847B060B8B1F06ABA
:1036D000401C7F1EF062F5D196F8380041070BD5EB
:1036E000002C09DDB0682021A847B06038B1F06A2D
:1036F000401C641EF062F5D10020BDE8F0814FF05F
:10370000FF30BDE8F0812DE9F8470D46A3B02F6BDF
:10371000002F8146904648BF6FF0004700F05EFDE5
:10372000696B40180FF62C118128D1E90023CDE9EF
:10373000012328BF4FF0FF303ED20024002F2FDDA1
:10374000D8F8001001AA684600F0CCFC0646002E0E
:1037500035D4D8F8000008B9761E30D4B7421FDB44
:103760006869301881280AD30020686303AA2946B3
:103770004846FFF74DFF040012D40020686103A8FB
:10378000D5F814A032466946504400F02DFDB244ED
:10379000C5F814A058F8040B002818BFBF1BCDD1E2
:1037A0002CB903AA29464846FFF732FF044614B94C
:1037B000002068616863204624B0BDE8F0874FF0C0
:1037C000FF34F8E72DE9FC4707468A463E69BAF11F
:1037D0006F0F08BF082405D04AF02001782914BFD4
:1037E0000A2410243C25D7E90023BAF1640F18BF3E
:1037F000BAF1690F9046994606D100218B4203DA4F
:10380000D8F1000869EB49090020814508BF8045CF
:103810001FD1386BE8B9082C4CD197F83800010754
:1038200048D530203B2586F83B0043E000280ED5E4
:1038300097F8380000F01400102808D17A6B7869E6
:10384000121A386A121A511A0029C8BF3962BDE823
:10385000F3878DF800A0404649462246E317FEF75D
:10386000E1FA3032D0B26D1E3A28019504DB9DF8A2
:103870000000A0F151018A1872554046494622467F
:10388000E317FEF7CFFA804689460020814508BF3E
:10389000804503D0F86871198842DCD3082C09D11F
:1038A00097F83800010705D5715D302902D06D1EEB
:1038B00030207055C5F13C01B9617019F860386B62
:1038C0008142B3DA411A39624FF6EF70398F014005
:1038D0003987BDE8F3872DE9D04306460F461446E5
:1038E0004FF00008DFF8389412E0E00707D54246B1
:1038F0004B463046394600F0CBFC06460F46404664
:10390000494642464B4600F0C3FC64108046894657
:10391000002CEAD130463946BDE8D0832DE9F34F7B
:10392000054641F020048DB0D5E90089612C02AE36
:1039300009D0286B002848BF062003D408BF672C95
:1039400001D101202863D5E9002358004015401C0F
:103950000ED119030CD00320A8619DF838006138FE
:103960001A2802D20FF2F46111E00FF2F4610EE0B6
:1039700058004015401C0FD119030DD10320A86138
:103980009DF8380061381A2814D30FF2DC61E8681A
:10399000032200F029FCD3E1194621F00043B3F5DE
:1039A000801F10460DD20027BB4208BFBA420197C4
:1039B00003D111E00FF2AC61E9E701AA00F03AFD92
:1039C0000AE0DFF8607307EB1352DFF85C33019213
:1039D0001940DFF858331943C5E90001612C0ED1B5
:1039E000E86830210170811CE9609DF83810612978
:1039F0000CBF7821582141706869801C6861D5E945
:103A000000AB2BF0004300202AF00002834204BFE9
:103A10008242002300F05A81612C40F0A980286B7B
:103A200000284CBF2120401C00904046009F7F1C76
:103A300049460022002300F035FDD94601988DF853
:103A4000082038BF89F00049001F0190002FD046A0
:103A50000DF1090040F3498140F2FF71DFF8D0B267
:103A60000C910646404649460022002300F032FDF4
:103A700080F03A814800400D00F11C0210D0002A6D
:103A80000EDD0C98824205DB09F0004040EA0B0194
:103A9000002013E0A448084040EA025140460DE0EF
:103AA00029F00043002028F00002834208BF824230
:103AB0000FBF40461C22404600F024FD8046894648
:103AC00000F0BEFDFF1F002F044609DD00F0D6FD0B
:103AD00002460B464046494600F0E2FD80468946D4
:103AE000F01D072104E004F00F0200F8012D24115D
:103AF000002C01DD491EF6D5491E5CBF002200F8EE
:103B0000012DF9D5ECE00020194602AA0A4400E094
:103B10005B1E12F80149491E8442F9D00F2804D1D6
:103B20000DF10900425C521C4254002904D5019851
:103B3000001D02AE5B1C0190591E12D49DF8380086
:103B40007218147804F130085FFA88F4392CC4BF75
:103B5000A0F13A04A044491E02F80189F1D58DF87C
:103B60003800286B002840F1B080591E2963ACE072
:103B7000404649460022002300F094FC019938BFDA
:103B800089F0004947F2975041436A4A91FBF2F2AB
:103B90000192D2F1070204DD40464946FFF79BFE41
:103BA0000AE0524200206449FFF795FE02460B46A8
:103BB0004046494600F0E6FD8046662C286BDFF85B
:103BC0007CB106BF019F0A3706273F18142FC8BFD4
:103BD000142730208DF8080089460DF1090000E017
:103BE0003046002F34DD06464046494600F0EEFEE2
:103BF00001460A4606F1080304200A26B2FBF6F63F
:103C000006EB860EA2EB4E02303203F8012C0A229C
:103C1000B6FBF2F202EB820EA6EB4E063036401EE9
:103C200003F8026DE9D1083F002F03F10806D7DD44
:103C3000084600F0DFFE02460B464046494600F0CB
:103C40002FFD00225B4600F023FB80468946CBE730
:103C50000DF10901401A0DF1090604E00199491E10
:103C6000401E0191761C31783029F7D0662C02D1A4
:103C70000199491C03E0652C0CBF012100212B6B2D
:103C8000CB189842B8BF431E002B1ED4834204DADF
:103C9000F05C3528A8BF392000DA30201946721EA2
:103CA00002EB010800E05B1E18F80199491E8145EE
:103CB000F9D0392802D1705C401C7054002904D519
:103CC0000198401C16465B1C0190019800B20090C0
:103CD0001BB29DF838103246284600F035F82FE028
:103CE000C61D002F3FF7BEAE30460DF10901401A48
:103CF000009903468842C8BF0B46002B0DF1090608
:103D00003FF52FAF8342BFF6FEAE0DF10900C05C58
:103D100007287FF7F8AE0F20F6E60000CBCCCC0CDE
:103D20000000244002FCFFFFFFFF0F800000E03F87
:103D30000000F07FA08601000000F03F84D797418B
:103D40000FB0BDE8F08F00002DE9F84783B00646BC
:103D50008A461746984600F0C7F9B8F1000F406A46
:103D6000356B90F8009002DC4FF00108BFA7BDF959
:103D700030404AF02000662808BF641C15D0672830
:103D800040F0848014F1040FC0F28680AC4280F2CF
:103D9000838096F83800641C010702D4A845B8BF98
:103DA000454620B22D1A48BF00250FFA84FAF06864
:103DB000B169BAF1000F25DC4A1C30234354002DB1
:103DC00003DC96F83800010703D5F06800F802908C
:103DD000521C15EB0A0FB8BF6C4220B24419414285
:103DE0004445B8BFA046B26171620FFA88F5F5612B
:103DF000F068B3692A463946184400F0F5F9641BA7
:103E0000B462C4E022B29045084417DA424639460B
:103E100000F0EAF9B0694044B061AAEB0801002D56
:103E2000716203DC96F838100A0705D5F16801F8CD
:103E30000090F069401CF061B562A8E0394600F0DE
:103E4000D3F9B069002D5044A8EB040803DC96F8C0
:103E500038100A0703D5F16801F80090401CB061E2
:103E60000FFA88F08542F068B369B8BFA8460FFA28
:103E700088F207EB0A01184400F0B6F9B0690FFAAE
:103E800088F10844B061681A706280E0BAF1610F8D
:103E900014D14FF0700A16E0A84504DA96F83810ED
:103EA0000A0758BF45466D1E48BF0025BAF1670F87
:103EB00014BF4FF0450A4FF0650A04E0BAF1410F14
:103EC00008BF4FF0500AB169F368481CB061002D7B
:103ED00017F8012B5A5403DC96F838100A071BD543
:103EE000F168431CB36101F80090002D14DDA8F1C6
:103EF00001080FFA88F08542F068B8BFA8460FFAAB
:103F000088F23946184400F06FF9B0690FFA88F169
:103F100008446D1AB0617562F068B1690844002CFC
:103F200080F800A003D42B214170811C03E02D21D7
:103F300041706442811C00206A460AE023460A243C
:103F400093FBF4F404EB8405A3EB450302F8013B77
:103F5000401C24B2002CF1DC012806DC4AF02002CF
:103F6000652A04BF302201F8012B48B9302001F83E
:103F7000010B07E0401E1DF80020303201F8012B34
:103F80000028F7DCF068B2691044091AF16196F86C
:103F9000380000F0140010280DD17169B069411883
:103FA000706A4118F0694118B06A4118706B81421B
:103FB000BCBF411A316204B0BDE8F087F8B50546D0
:103FC0000E4617461C46002074B117F8011BB06856
:103FD000A847B06030B1F06A401CF0620020641E57
:103FE000F3D1F2BD4FF0FF30F2BD00007072696E88
:103FF00074665F733A20256E20646973616C6C6F20
:10400000776564007072696E74663A20626164203C
:10401000256E20617267756D656E74007072696ED1
:1040200074665F733A206261642025732061726751
:10403000756D656E740000007072696E74665F73F2
:104040003A2062616420256C7320617267756D652A
:104050006E74000000000000000000006E616E0041
:104060004E414E00696E6600494E46003000704772
:10407000704770477047704770477047704700003F
:104080001A48704730B45368D418042B09DA41B188
:10409000057804F8015B10F8015B15B15B1C491E43
:1040A000F3E7536030BC704738B514461D4661B124
:1040B000FFF7E8FF61686A6B204690476FF00102E6
:1040C000811A02D0491E03D005E06FF0010032BD15
:1040D0004FF0FF3032BD0021616032BDDA6B104716
:1040E000024BE1E7014BF9E7014870474800002027
:1040F000100000200278C9B28A421AB11CBF10F821
:10410000012FF9E718BF00207047000080B500B903
:1041100006A005490B681BB122220021984701E047
:1041200000F075FC222002BDF4010020636F6E7365
:10413000747261696E742068616E646C65723A2095
:10414000626164206D6573736167650000F101034E
:10415000810704D010F8011B89B18107FAD10268E8
:10416000B2F10131914311F0803F04BF50F8042FA8
:10417000F6E710F8011B11B110F8011BFBE7C01A9C
:1041800070470000C9B2830706D0521E22D310F830
:10419000013B9942F7D11FE0083A13D302F1040220
:1041A00041EA012141EA014150F8043B121F21BFBD
:1041B0004B40A3F1013C2CEA030C1CF0803FF3D0F0
:1041C000C9B2001F083210F8013B521E28BF91EA05
:1041D000030FF8D818BF0120401E704780B5FFF7C5
:1041E0004FFF006C02BD000062B38B0708D0521E67
:1041F00011F8013B00F8013B00F024808B07F6D159
:10420000830740F0208000BF103A07D330B4B1E8F4
:104210003810103AA0E83810F9D230BC530724BF48
:10422000B1E80810A0E8081044BF51F8043B40F87A
:10423000043BD20724BF31F8022B20F8022B44BFE5
:104240000B7803707047121F17D35B0009D151F828
:10425000043B20F8023B1B0C121F20F8023BF6D255
:104260000BE051F8043B00F8013B1B0A20F8023B2D
:104270001B0C121F00F8013BF3D238BF121D521E57
:1042800024BF11F8013B00F8013BF8D8704700004B
:10429000B0B581EA030C0CF0004C40F2FF7515EA52
:1042A00011541DBF15EA1357AC42AF4239E0E4196F
:1042B00023EA455343F48013C90241F0004141EA27
:1042C000505EC7021100A7FB020200284FF0000059
:1042D000EEFB01204FF00001E3FB072118BF42F085
:1042E0000102401800214941E3FB0E01A4F580645E
:1042F0000F0302D252004041494154F101046CDDE8
:10430000470872F1004250F1000051EB0451A1F551
:1043100080115CBF41EA0C01B0BD4CEA05510020A0
:10432000B0BD05EA1357AC4214BFAF4241E050EABA
:10433000410E1CBF52EA430E02E061460020B0BDB0
:1043400024423C441BD15FEA070EF6D0090302BFAA
:1043500001460020AEF1140EB1FA81F7AEEB07046E
:1043600001FA07FE0C37C7F1200100FA07F7C84031
:104370004EEA000E23EA455343F48013A2E733F0DC
:104380000043B3FA83F704BFB2FA82FE77440B3FCF
:10439000E41BB7F1200E2FBF02FA0EF3BB40C7F1AA
:1043A000200E22FA0EFE38BF43EA0E03BA40641C08
:1043B00082E750EA410E14BF52EA430E6FF000014B
:1043C0004FF4001717EB430F8ABF194617EB410F45
:1043D000B5E74CEA05510020B0BDD4F10104B4F1B9
:1043E00020070FDAC4F12007520828BF42F001026B
:1043F00010FA07F501FA07F7E1BF2A43E040384316
:10440000E1400FE0352C98DCC7F1200452EA40026D
:1044100020FA07F218BF42F0010231FA07F0A1407A
:104420000A43002172F1004250F1000051EB0C01EF
:10443000B0BD000010B5144600F002F8226010BDB7
:10444000C1F30A5343B14A0012F5001F28D2A3F268
:10445000FE32A1EB0251704750EA410C20D001F02E
:10446000004C31EA0C01B1FA81F204BFB0FA80F3DA
:10447000D2180B3AB2F120032CBF00FA03F191409D
:1044800041EA0C013EBFC2F1200C20FA0CF31943A3
:104490009040524240F2FD33D21A01EB0351704773
:1044A000002270474FF4001C1CEB410F94BF1CEB23
:1044B000430F09E041EA030C50EA4C0C52EA0C0CA1
:1044C00003D2994208BF9042704714BF8B42824288
:1044D000704700004FF4001C1CEB410F94BF1CEB15
:1044E000430F09E041EA030C50EA4C0C52EA0C0C71
:1044F00003D28B4208BF8242704714BF9942904258
:1045000070470000124254D440F2FF7C1CEA115361
:104510000FD0634531D09B1863453CBF01EB02517E
:10452000704701F0004141EA0C510020AFF30080D8
:10453000704750EA410320D001F0004C91EA0C0191
:104540001CD0B1FA81F30B3B9A420DD9D21A994093
:1045500051EA0C01C3F1200C20FA0CFC6144984094
:10456000531C40F2FF7CD7E7914041EA0C01C2F1B5
:10457000200C20FA0CF3194390407047B0FA80F3F6
:104580001533202BE0D3202AEED3203A203B9A4249
:1045900009D9D21A00FA03F141EA0C010020531C98
:1045A00040F2FF7CB8E700FA02F141EA0C0100207A
:1045B0007047524240F2FF7C1CEA11530DD0634514
:1045C000DBD0B2EB030C3CBFA1EB025170470CF106
:1045D000010221EA035141F4801150EA410CCCD090
:1045E00001F0004C352A27DC30B481EA0C01B2F12D
:1045F000200309DAC2F12003044601FA03F5D04092
:104600002843D1409C400CE0C3F12002450020FA31
:1046100003F418BF44F0010421FA03F091400C4365
:10462000002174F1004550F1000051EB0C012442CF
:1046300030BC7FF47BAF70476146002076E7000016
:10464000C1F30A5340F2FE329B1A14DDD3F120036A
:104650004FEAE17208DDC90241EA505141F00040E1
:10466000D84080185040704703F2E13010B1D24377
:1046700082F000407047002070470000C11768B109
:104680004840401AB0FA80F29040D21CC907C2F5E7
:10469000846241EA025202EBD021400570470000DB
:1046A00070B44FF0004591EA030F40F1B3816B40C5
:1046B000841A71EB030603D2001BB1411219734136
:1046C0004FF4001C1CEB410F34BF7CEB430442E071
:1046D0000C0DA4EB1356352E4FDC45EAC323DB0A41
:1046E00045EAC121C912B6F120050DDD63FA05F6D0
:1046F000EB4086EA0305124218BF45F00105C018D9
:1047000051F100010CD213E062FA06F5F240554077
:10471000F3415A40B340F3405A408018594107D3FF
:1047200049085FEA30005FEA350528BF45F001051A
:1047300001F58011420875F1004250F1000041EB93
:1047400004514E0016F5001F70BC38BF70470020A2
:10475000090D090570471CEB410F10D252EA4306C0
:104760000BD0BCEB410F05D80C0DAB43661E342EAD
:10477000B6DD02E0AB438018594170BC704770BC95
:1047800070470000F0B540F2FF7581EA030C0CF0B1
:10479000004C15EA11541DBF15EA1357AC42AF4245
:1047A000E5E0BC41C1F31301C3F31303801A99413F
:1047B00043F4801304D2641E4000494180185941DB
:1047C000C90241EA5051B1FBF3F603FB1611A2FBFB
:1047D0000675D7EBC020A94102D2761E8018594138
:1047E000C90241EA5051B1FBF3FE03FB1E11A2FBCB
:1047F0000E75D7EBC020A94103D2AEF1010E80188F
:104800005941890241EA9051760546EA8E2EB1FB64
:10481000F3F603FB1611A2FB0675D7EB8020A94126
:1048200002D2761E80185941C90241EA50514EEA1F
:10483000060EB1FBF3F603FB1611A2FB0675D7EBD0
:10484000C020A94102D2761E80185941C90241EA0E
:104850005051B1FBF3F703FB1711A2FB0735D3EB64
:10486000C020A94167F100070CBF004247F00107D3
:1048700066F3D5274FEA1E31B80814F5806412DDBF
:10488000BD0775F1004250EB0E5051EB045111F58C
:10489000801F5CBF41EA0C01F0BD4CF07F6141F02C
:1048A000E0410020F0BDBD076D0840EA0E5041F424
:1048B0008011D4F10104B4F120060ADAC4F1200613
:1048C0000200E04001FA06F3E1401843B24015430C
:1048D0000EE0342C13DCC6F1200445EA40056D08D7
:1048E00020FA06F2154321FA06F0A1400D430021FB
:1048F00075F1004250F1000051EB0C01F0BD0020B9
:104900005FEA0C01F0BDCFB992185B41B3FA83F7AF
:1049100004BFB2FA82F6BF190B3FB7F120062FBFD2
:1049200002FA06F3BB40C7F1200622FA06F638BFAA
:104930003343BA401CB1E419641E33E77F4231F0BF
:104940000041B1FA81F404BFB0FA80F6A4190B3C1F
:10495000B4F120062FBF00FA06F1A140C4F12006F1
:1049600020FA06F638BF3143A0403C1B1AE7AC42A0
:104970001ABF05EA1357AF4212E050EA41061CBFC6
:1049800052EA4306BFE750EA4107304661461CBF82
:1049900041EA0551F0BD52EA430C08BFC143F0BDE6
:1049A00000204FF4001616EB410F98BF16EB430F93
:1049B00008BF16EB410F24BFC14305E016EB430FC0
:1049C0000CBF61464CEA0551F0BD0000400D49188E
:1049D00040EA81200CD2490DA1F58061491C40F0CC
:1049E000004005DBD1F11F0154BFC840C01770471C
:1049F00000207047014648B1B0FA80F18840C91CD8
:104A0000C1F58461090501EBD02140057047012003
:104A100000F0B4B8841A71EB030604D26E40001B98
:104A2000B141121973414FF4001C1CEB410F34BF0C
:104A30007CEB430682E00C0DA4EB1356362E7BDC98
:104A4000012E45EAC32341DC43EA525312BFD2028E
:104A500092025B08240545EAC12141EA5051D2EB9C
:104A6000C020994125D407D1B0FA80F610FA06F19A
:104A700062D00020203608E0B1FA81F6B140C6F1DC
:104A8000200220FA02F21143B0404FEAF474B4EB72
:104A9000465434F001064FEA74040AD8D6F50016DD
:104AA000760D04F00044F04061FA06F25040F14007
:104AB0004840C00A40EA415021F0004128BF5FEA67
:104AC000500550F1000044EBD12135E0DB0A45EA06
:104AD000C121C90AB6F120050EDD42EA0242120CDC
:104AE000C5F1200603FA06F6EB4042EA06056D42E0
:104AF000984161F100010DE062FA06F5F24055407F
:104B000063FA06FC82EA0C02F3405A406D4290417F
:104B100061EB030111F4801F05D1641E620502D010
:104B20006D004041494121F48011430875F1004373
:104B300050F1000041EB045170BC70471CEB410F79
:104B400015D223F0004352EA43060BD04FEA4C0C37
:104B5000BCEB410F04D80C0D661E342EB7DDEBE71D
:104B6000801A994150EA410608BF0021E4E708BFD6
:104B70001CEB430F28BF6FF00001DDE780B5AFF3FA
:104B80000080024A11001820ABBEFBE7260002009D
:104B90000E48016841F47001016000220C49086868
:104BA00040F0010008608A600A480A6802400A6012
:104BB0004FF48050C8600022086820F4802008600C
:104BC0008A614FF0006004490860704788ED00E09A
:104BD00000100240FFFFF6EA08ED00E000000000D0
:104BE000000000000102030406070809A086010076
:104BF000400D0300801A060000350C0040420F00F3
:104C000080841E0000093D0000127A000024F40098
:104C100000366E010048E801006CDC0219E050F833
:104C2000042BD30744BFA9F101039A18091F0023DD
:104C3000042942F8043BF9D25FEA817C134604D58B
:104C40004FF0000CA2F800C09B1CC90744BF002114
:104C5000197050F8041B0029E1D1704730B5016884
:104C600084684218416802EB5103C9070BD54C44D4
:104C700009E012F9011B12F8015B002904F8015B3D
:104C800005D5491CF9D19A42F3D10C3030BD491EEB
:104C9000F1D5F8E77047FEE7FEE7FEE7FEE770476D
:104CA0007047704700F00EB80248FEF7FEB80248A1
:104CB000FBF795BBB4010020D80000204FF4005052
:104CC000FDF769BB02490A68886882180A60704764
:104CD0000000002010B5074979441831064C7C4487
:104CE000163404E00A68081D114488470146A142B1
:104CF000F8D110BD2C000000480000004EF688518D
:104D0000CEF20001086840F470000860BFF34F8FD6
:104D1000BFF36F8F4FF00070E1EE100A7047000094
:104D2000FDFEFFFF24010000D8000020000000006D
:104D30002DFFFFFFE201000008010000000000203D
:104D400000F00DF8002801D0FFF7C4FFAFF300809A
:104D50000020AFF30080FDF787F900F002F8012092
:104D6000704700F001B8000007463846FFF706FF1D
:104D7000FBE738B504460D46284600F005F8A84282
:104D800018BF0024204632BD0149FDF763B900BFBA
:104D9000900000200148804701480047914B0008DF
:104DA000A54D0008AFF30080FFF7A8FFFFF7C8FF8D
:104DB000000000000102030400002E004300FFF782
:104DC000FEBFFFF7FEBFFFF7FEBFFFF7FEBFFFF717
:104DD000FEBFFFF7FEBFFFF7FEBFFFF7FEBFFFF707
:104DE000FEBFFFF7FEBFFFF7FEBFFFF7FEBFFFF7F7
:104DF000FEBFFFF7FEBFFFF7FEBFFFF7FEBFFFF7E7
:104E0000FEBFFFF7FEBFFFF7FEBFFFF7FEBFFFF7D6
:104E1000FEBFFFF7FEBFFFF7FEBFFFF7FEBFFFF7C6
:104E2000FEBFFFF7FEBFFFF7FEBFFFF7FEBFFFF7B6
:104E3000FEBFFFF7FEBFFFF7FEBFFFF7FEBFFFF7A6
:104E4000FEBFFFF7FEBFFFF7FEBFFFF7FEBFFFF796
:104E5000FEBFFFF7FEBFFFF7FEBFFFF7FEBFFFF786
:104E6000FEBFFFF7FEBFFFF7FEBFFFF7FEBFFFF776
:104E7000FEBFFFF7FEBFFFF7FEBFFFF7FEBFFFF766
:104E8000FEBFFFF7FEBFFFF7FEBFFFF7FEBFFFF756
:104E9000FEBFFFF7FEBFFFF7FEBFFFF7FEBFFFF746
:104EA000FEBFFFF7FEBFFFF7FEBFFFF7FEBFFFF736
:104EB000FEBFFFF7FEBFFFF7FEBFFFF7FEBFFFF726
:104EC000FEBFFFF7FEBFFFF7FEBFFFF7FEBFFFF716
:104ED000FEBFFFF7FEBFFFF7FEBFFFF7FEBFFFF706
:104EE000FEBFFFF7FEBFFFF7FEBFFFF7FEBFFFF7F6
:104EF000FEBFFFF7FEBFFFF7FEBFFFF7FEBFFFF7E6
:104F0000FEBFFFF7FEBFFFF7FEBFFFF7FEBFFFF7D5
:104F1000FEBFFFF7FEBFFC000010FD000001FC001B
:104F20001E093D00B84D0008B84D0008B84D0008F6
:104F3000B84D0008B84D0008B84D0008B84D00083D
:104F4000F8FF0BBA4D0008B84D0008B84D0008FA3C
:104F5000FF060000BC4D000801FD0003100000200A
:104F6000D8000305150008FC0004F314000801F93B
:104F700000130204010164010020B4010020640157
:104F8000002064010020FC000364010020FC0007F5
:0A4F9000D4000020C0000020E00063
:0400000508004DA5FD
:00000001FF
